{
  "contractName": "Marketplace",
  "abi": [
    {
      "inputs": [
        {
          "internalType": "address",
          "name": "_nftAddress",
          "type": "address"
        },
        {
          "internalType": "address",
          "name": "_creditAddress",
          "type": "address"
        }
      ],
      "stateMutability": "nonpayable",
      "type": "constructor"
    },
    {
      "anonymous": false,
      "inputs": [
        {
          "indexed": false,
          "internalType": "uint256",
          "name": "tokenId",
          "type": "uint256"
        },
        {
          "indexed": false,
          "internalType": "uint256",
          "name": "price",
          "type": "uint256"
        },
        {
          "indexed": false,
          "internalType": "address",
          "name": "seller",
          "type": "address"
        }
      ],
      "name": "NFTListed",
      "type": "event"
    },
    {
      "anonymous": false,
      "inputs": [
        {
          "indexed": false,
          "internalType": "uint256",
          "name": "tokenId",
          "type": "uint256"
        }
      ],
      "name": "NFTListingRemoved",
      "type": "event"
    },
    {
      "anonymous": false,
      "inputs": [
        {
          "indexed": false,
          "internalType": "uint256",
          "name": "tokenId",
          "type": "uint256"
        },
        {
          "indexed": false,
          "internalType": "address",
          "name": "buyer",
          "type": "address"
        }
      ],
      "name": "NFTPurchased",
      "type": "event"
    },
    {
      "inputs": [],
      "name": "creditContract",
      "outputs": [
        {
          "internalType": "contract NFTcr",
          "name": "",
          "type": "address"
        }
      ],
      "stateMutability": "view",
      "type": "function",
      "constant": true
    },
    {
      "inputs": [
        {
          "internalType": "uint256",
          "name": "",
          "type": "uint256"
        }
      ],
      "name": "listings",
      "outputs": [
        {
          "internalType": "uint256",
          "name": "price",
          "type": "uint256"
        },
        {
          "internalType": "address",
          "name": "seller",
          "type": "address"
        }
      ],
      "stateMutability": "view",
      "type": "function",
      "constant": true
    },
    {
      "inputs": [],
      "name": "nftContract",
      "outputs": [
        {
          "internalType": "contract NFTs",
          "name": "",
          "type": "address"
        }
      ],
      "stateMutability": "view",
      "type": "function",
      "constant": true
    },
    {
      "inputs": [
        {
          "internalType": "uint256",
          "name": "tokenId",
          "type": "uint256"
        },
        {
          "internalType": "uint256",
          "name": "price",
          "type": "uint256"
        }
      ],
      "name": "listNFT",
      "outputs": [],
      "stateMutability": "nonpayable",
      "type": "function"
    },
    {
      "inputs": [
        {
          "internalType": "uint256",
          "name": "tokenId",
          "type": "uint256"
        }
      ],
      "name": "buyNFT",
      "outputs": [],
      "stateMutability": "nonpayable",
      "type": "function"
    },
    {
      "inputs": [
        {
          "internalType": "uint256",
          "name": "tokenId",
          "type": "uint256"
        }
      ],
      "name": "removeListing",
      "outputs": [],
      "stateMutability": "nonpayable",
      "type": "function"
    }
  ],
  "bytecode": "0x608060405234801561000f575f80fd5b5060405162000e7738038062000e7783398181016040528101906100339190610117565b815f806101000a81548173ffffffffffffffffffffffffffffffffffffffff021916908373ffffffffffffffffffffffffffffffffffffffff1602179055508060015f6101000a81548173ffffffffffffffffffffffffffffffffffffffff021916908373ffffffffffffffffffffffffffffffffffffffff1602179055505050610155565b5f80fd5b5f73ffffffffffffffffffffffffffffffffffffffff82169050919050565b5f6100e6826100bd565b9050919050565b6100f6816100dc565b8114610100575f80fd5b50565b5f81519050610111816100ed565b92915050565b5f806040838503121561012d5761012c6100b9565b5b5f61013a85828601610103565b925050602061014b85828601610103565b9150509250929050565b610d1480620001635f395ff3fe608060405234801561000f575f80fd5b5060043610610060575f3560e01c8063479ad4c31461006457806351ed82881461008057806394383f141461009c578063c24375cf146100b8578063d56d229d146100d6578063de74e57b146100f4575b5f80fd5b61007e6004803603810190610079919061086b565b610125565b005b61009a6004803603810190610095919061086b565b6102c9565b005b6100b660048036038101906100b19190610896565b610512565b005b6100c06107ad565b6040516100cd919061094e565b60405180910390f35b6100de6107d2565b6040516100eb9190610987565b60405180910390f35b61010e6004803603810190610109919061086b565b6107f5565b60405161011c9291906109cf565b60405180910390f35b3373ffffffffffffffffffffffffffffffffffffffff1660025f8381526020019081526020015f206001015f9054906101000a900473ffffffffffffffffffffffffffffffffffffffff1673ffffffffffffffffffffffffffffffffffffffff16146101c6576040517f08c379a00000000000000000000000000000000000000000000000000000000081526004016101bd90610a50565b60405180910390fd5b5f8054906101000a900473ffffffffffffffffffffffffffffffffffffffff1673ffffffffffffffffffffffffffffffffffffffff166323b872dd3033846040518463ffffffff1660e01b815260040161022293929190610a6e565b5f604051808303815f87803b158015610239575f80fd5b505af115801561024b573d5f803e3d5ffd5b5050505060025f8281526020019081526020015f205f8082015f9055600182015f6101000a81549073ffffffffffffffffffffffffffffffffffffffff021916905550507f64cb74d9643d989f1da3d4c5dafaee02a54b60270fb86efa4d9512054ddd92c1816040516102be9190610aa3565b60405180910390a150565b5f60025f8381526020019081526020015f205f01541161031e576040517f08c379a000000000000000000000000000000000000000000000000000000000815260040161031590610b06565b60405180910390fd5b5f60025f8381526020019081526020015f205f015490505f60025f8481526020019081526020015f206001015f9054906101000a900473ffffffffffffffffffffffffffffffffffffffff16905060015f9054906101000a900473ffffffffffffffffffffffffffffffffffffffff1673ffffffffffffffffffffffffffffffffffffffff166323b872dd3383856040518463ffffffff1660e01b81526004016103ca93929190610a6e565b6020604051808303815f875af11580156103e6573d5f803e3d5ffd5b505050506040513d601f19601f8201168201806040525081019061040a9190610b59565b505f8054906101000a900473ffffffffffffffffffffffffffffffffffffffff1673ffffffffffffffffffffffffffffffffffffffff166323b872dd3033866040518463ffffffff1660e01b815260040161046793929190610a6e565b5f604051808303815f87803b15801561047e575f80fd5b505af1158015610490573d5f803e3d5ffd5b5050505060025f8481526020019081526020015f205f8082015f9055600182015f6101000a81549073ffffffffffffffffffffffffffffffffffffffff021916905550507fbebca6653c629a651174dc2ea9b9f7ef506290dee89fe1a6087eb1e12c06d43083336040516105059291906109cf565b60405180910390a1505050565b3373ffffffffffffffffffffffffffffffffffffffff165f8054906101000a900473ffffffffffffffffffffffffffffffffffffffff1673ffffffffffffffffffffffffffffffffffffffff16636352211e846040518263ffffffff1660e01b81526004016105819190610aa3565b602060405180830381865afa15801561059c573d5f803e3d5ffd5b505050506040513d601f19601f820116820180604052508101906105c09190610bae565b73ffffffffffffffffffffffffffffffffffffffff1614610616576040517f08c379a000000000000000000000000000000000000000000000000000000000815260040161060d90610c23565b60405180910390fd5b5f8111610658576040517f08c379a000000000000000000000000000000000000000000000000000000000815260040161064f90610c8b565b60405180910390fd5b5f8054906101000a900473ffffffffffffffffffffffffffffffffffffffff1673ffffffffffffffffffffffffffffffffffffffff166323b872dd3330856040518463ffffffff1660e01b81526004016106b493929190610a6e565b5f604051808303815f87803b1580156106cb575f80fd5b505af11580156106dd573d5f803e3d5ffd5b5050505060405180604001604052808281526020013373ffffffffffffffffffffffffffffffffffffffff1681525060025f8481526020019081526020015f205f820151815f01556020820151816001015f6101000a81548173ffffffffffffffffffffffffffffffffffffffff021916908373ffffffffffffffffffffffffffffffffffffffff1602179055509050507fd2ab19646d6f9fdd37206f962b4ebaab8a4a23ad87f7695e7e1736803cb8bf748282336040516107a193929190610ca9565b60405180910390a15050565b60015f9054906101000a900473ffffffffffffffffffffffffffffffffffffffff1681565b5f8054906101000a900473ffffffffffffffffffffffffffffffffffffffff1681565b6002602052805f5260405f205f91509050805f015490806001015f9054906101000a900473ffffffffffffffffffffffffffffffffffffffff16905082565b5f80fd5b5f819050919050565b61084a81610838565b8114610854575f80fd5b50565b5f8135905061086581610841565b92915050565b5f602082840312156108805761087f610834565b5b5f61088d84828501610857565b91505092915050565b5f80604083850312156108ac576108ab610834565b5b5f6108b985828601610857565b92505060206108ca85828601610857565b9150509250929050565b5f73ffffffffffffffffffffffffffffffffffffffff82169050919050565b5f819050919050565b5f61091661091161090c846108d4565b6108f3565b6108d4565b9050919050565b5f610927826108fc565b9050919050565b5f6109388261091d565b9050919050565b6109488161092e565b82525050565b5f6020820190506109615f83018461093f565b92915050565b5f6109718261091d565b9050919050565b61098181610967565b82525050565b5f60208201905061099a5f830184610978565b92915050565b6109a981610838565b82525050565b5f6109b9826108d4565b9050919050565b6109c9816109af565b82525050565b5f6040820190506109e25f8301856109a0565b6109ef60208301846109c0565b9392505050565b5f82825260208201905092915050565b7f4e6f74207468652073656c6c65720000000000000000000000000000000000005f82015250565b5f610a3a600e836109f6565b9150610a4582610a06565b602082019050919050565b5f6020820190508181035f830152610a6781610a2e565b9050919050565b5f606082019050610a815f8301866109c0565b610a8e60208301856109c0565b610a9b60408301846109a0565b949350505050565b5f602082019050610ab65f8301846109a0565b92915050565b7f4e6f74206c697374656420666f722073616c65000000000000000000000000005f82015250565b5f610af06013836109f6565b9150610afb82610abc565b602082019050919050565b5f6020820190508181035f830152610b1d81610ae4565b9050919050565b5f8115159050919050565b610b3881610b24565b8114610b42575f80fd5b50565b5f81519050610b5381610b2f565b92915050565b5f60208284031215610b6e57610b6d610834565b5b5f610b7b84828501610b45565b91505092915050565b610b8d816109af565b8114610b97575f80fd5b50565b5f81519050610ba881610b84565b92915050565b5f60208284031215610bc357610bc2610834565b5b5f610bd084828501610b9a565b91505092915050565b7f4e6f7420746865206f776e6572000000000000000000000000000000000000005f82015250565b5f610c0d600d836109f6565b9150610c1882610bd9565b602082019050919050565b5f6020820190508181035f830152610c3a81610c01565b9050919050565b7f5072696365206d7573742062652067726561746572207468616e2030000000005f82015250565b5f610c75601c836109f6565b9150610c8082610c41565b602082019050919050565b5f6020820190508181035f830152610ca281610c69565b9050919050565b5f606082019050610cbc5f8301866109a0565b610cc960208301856109a0565b610cd660408301846109c0565b94935050505056fea264697066735822122033a5df1dd7eb202bf77cbdd64b59c644ef5c1afab5328f488a68277f276d64c264736f6c63430008140033",
  "immutableReferences": {},
  "source": "// SPDX-License-Identifier: MIT\npragma solidity ^0.8.0;\n\nimport \"./NFTs.sol\";\nimport \"./NFTcr.sol\";\n\ncontract Marketplace {\n    NFTs public nftContract;\n    NFTcr public creditContract;\n\n    struct Listing {\n        uint256 price;\n        address seller;\n    }\n\n    mapping(uint256 => Listing) public listings;\n\n    event NFTListed(uint256 tokenId, uint256 price, address seller);\n    event NFTPurchased(uint256 tokenId, address buyer);\n    event NFTListingRemoved(uint256 tokenId);\n\n    constructor(address _nftAddress, address _creditAddress) {\n        nftContract = NFTs(_nftAddress);\n        creditContract = NFTcr(_creditAddress);\n    }\n\n    function listNFT(uint256 tokenId, uint256 price) external {\n        require(nftContract.ownerOf(tokenId) == msg.sender, \"Not the owner\");\n        require(price > 0, \"Price must be greater than 0\");\n\n        nftContract.transferFrom(msg.sender, address(this), tokenId); // Transfers the NFT to this contract\n\n        listings[tokenId] = Listing({\n            price: price,\n            seller: msg.sender\n        });\n\n        emit NFTListed(tokenId, price, msg.sender);\n    }\n\n    function buyNFT(uint256 tokenId) external {\n        require(listings[tokenId].price > 0, \"Not listed for sale\");\n        \n        uint256 salePrice = listings[tokenId].price;\n        address seller = listings[tokenId].seller;\n\n        // Transfer NFTcr from buyer to seller\n        creditContract.transferFrom(msg.sender, seller, salePrice);\n        \n        // Transfer NFT from contract to buyer\n        nftContract.transferFrom(address(this), msg.sender, tokenId);\n\n        // Remove the listing\n        delete listings[tokenId];\n\n        emit NFTPurchased(tokenId, msg.sender);\n    }\n\n    function removeListing(uint256 tokenId) external {\n        require(listings[tokenId].seller == msg.sender, \"Not the seller\");\n\n        nftContract.transferFrom(address(this), msg.sender, tokenId);\n\n        delete listings[tokenId];\n\n        emit NFTListingRemoved(tokenId);\n    }\n}\n",
  "sourcePath": "/Volumes/Projects/sulake/project/habbo-marketplace/contracts/Marketplace.sol",
  "compiler": {
    "name": "solc",
    "version": "0.8.20+commit.a1b79de6.Emscripten.clang"
  },
  "schemaVersion": "3.4.14",
  "updatedAt": "2023-08-23T08:58:15.163Z",
  "networkType": "ethereum",
  "devdoc": {
    "kind": "dev",
    "methods": {},
    "version": 1
  },
  "userdoc": {
    "kind": "user",
    "methods": {},
    "version": 1
  }
}