{
  "contractName": "NFTs",
  "abi": [
    {
      "inputs": [],
      "stateMutability": "nonpayable",
      "type": "constructor"
    },
    {
      "anonymous": false,
      "inputs": [
        {
          "indexed": true,
          "internalType": "address",
          "name": "owner",
          "type": "address"
        },
        {
          "indexed": true,
          "internalType": "address",
          "name": "approved",
          "type": "address"
        },
        {
          "indexed": true,
          "internalType": "uint256",
          "name": "tokenId",
          "type": "uint256"
        }
      ],
      "name": "Approval",
      "type": "event"
    },
    {
      "anonymous": false,
      "inputs": [
        {
          "indexed": true,
          "internalType": "address",
          "name": "owner",
          "type": "address"
        },
        {
          "indexed": true,
          "internalType": "address",
          "name": "operator",
          "type": "address"
        },
        {
          "indexed": false,
          "internalType": "bool",
          "name": "approved",
          "type": "bool"
        }
      ],
      "name": "ApprovalForAll",
      "type": "event"
    },
    {
      "anonymous": false,
      "inputs": [
        {
          "indexed": true,
          "internalType": "address",
          "name": "from",
          "type": "address"
        },
        {
          "indexed": true,
          "internalType": "address",
          "name": "to",
          "type": "address"
        },
        {
          "indexed": true,
          "internalType": "uint256",
          "name": "tokenId",
          "type": "uint256"
        }
      ],
      "name": "Transfer",
      "type": "event"
    },
    {
      "inputs": [
        {
          "internalType": "address",
          "name": "to",
          "type": "address"
        },
        {
          "internalType": "uint256",
          "name": "tokenId",
          "type": "uint256"
        }
      ],
      "name": "approve",
      "outputs": [],
      "stateMutability": "nonpayable",
      "type": "function"
    },
    {
      "inputs": [
        {
          "internalType": "address",
          "name": "owner",
          "type": "address"
        }
      ],
      "name": "balanceOf",
      "outputs": [
        {
          "internalType": "uint256",
          "name": "",
          "type": "uint256"
        }
      ],
      "stateMutability": "view",
      "type": "function",
      "constant": true
    },
    {
      "inputs": [
        {
          "internalType": "uint256",
          "name": "tokenId",
          "type": "uint256"
        }
      ],
      "name": "getApproved",
      "outputs": [
        {
          "internalType": "address",
          "name": "",
          "type": "address"
        }
      ],
      "stateMutability": "view",
      "type": "function",
      "constant": true
    },
    {
      "inputs": [
        {
          "internalType": "address",
          "name": "owner",
          "type": "address"
        },
        {
          "internalType": "address",
          "name": "operator",
          "type": "address"
        }
      ],
      "name": "isApprovedForAll",
      "outputs": [
        {
          "internalType": "bool",
          "name": "",
          "type": "bool"
        }
      ],
      "stateMutability": "view",
      "type": "function",
      "constant": true
    },
    {
      "inputs": [],
      "name": "name",
      "outputs": [
        {
          "internalType": "string",
          "name": "",
          "type": "string"
        }
      ],
      "stateMutability": "view",
      "type": "function",
      "constant": true
    },
    {
      "inputs": [
        {
          "internalType": "uint256",
          "name": "tokenId",
          "type": "uint256"
        }
      ],
      "name": "ownerOf",
      "outputs": [
        {
          "internalType": "address",
          "name": "",
          "type": "address"
        }
      ],
      "stateMutability": "view",
      "type": "function",
      "constant": true
    },
    {
      "inputs": [
        {
          "internalType": "address",
          "name": "from",
          "type": "address"
        },
        {
          "internalType": "address",
          "name": "to",
          "type": "address"
        },
        {
          "internalType": "uint256",
          "name": "tokenId",
          "type": "uint256"
        }
      ],
      "name": "safeTransferFrom",
      "outputs": [],
      "stateMutability": "nonpayable",
      "type": "function"
    },
    {
      "inputs": [
        {
          "internalType": "address",
          "name": "from",
          "type": "address"
        },
        {
          "internalType": "address",
          "name": "to",
          "type": "address"
        },
        {
          "internalType": "uint256",
          "name": "tokenId",
          "type": "uint256"
        },
        {
          "internalType": "bytes",
          "name": "data",
          "type": "bytes"
        }
      ],
      "name": "safeTransferFrom",
      "outputs": [],
      "stateMutability": "nonpayable",
      "type": "function"
    },
    {
      "inputs": [
        {
          "internalType": "address",
          "name": "operator",
          "type": "address"
        },
        {
          "internalType": "bool",
          "name": "approved",
          "type": "bool"
        }
      ],
      "name": "setApprovalForAll",
      "outputs": [],
      "stateMutability": "nonpayable",
      "type": "function"
    },
    {
      "inputs": [
        {
          "internalType": "bytes4",
          "name": "interfaceId",
          "type": "bytes4"
        }
      ],
      "name": "supportsInterface",
      "outputs": [
        {
          "internalType": "bool",
          "name": "",
          "type": "bool"
        }
      ],
      "stateMutability": "view",
      "type": "function",
      "constant": true
    },
    {
      "inputs": [],
      "name": "symbol",
      "outputs": [
        {
          "internalType": "string",
          "name": "",
          "type": "string"
        }
      ],
      "stateMutability": "view",
      "type": "function",
      "constant": true
    },
    {
      "inputs": [
        {
          "internalType": "uint256",
          "name": "index",
          "type": "uint256"
        }
      ],
      "name": "tokenByIndex",
      "outputs": [
        {
          "internalType": "uint256",
          "name": "",
          "type": "uint256"
        }
      ],
      "stateMutability": "view",
      "type": "function",
      "constant": true
    },
    {
      "inputs": [
        {
          "internalType": "address",
          "name": "owner",
          "type": "address"
        },
        {
          "internalType": "uint256",
          "name": "index",
          "type": "uint256"
        }
      ],
      "name": "tokenOfOwnerByIndex",
      "outputs": [
        {
          "internalType": "uint256",
          "name": "",
          "type": "uint256"
        }
      ],
      "stateMutability": "view",
      "type": "function",
      "constant": true
    },
    {
      "inputs": [],
      "name": "totalSupply",
      "outputs": [
        {
          "internalType": "uint256",
          "name": "",
          "type": "uint256"
        }
      ],
      "stateMutability": "view",
      "type": "function",
      "constant": true
    },
    {
      "inputs": [
        {
          "internalType": "address",
          "name": "from",
          "type": "address"
        },
        {
          "internalType": "address",
          "name": "to",
          "type": "address"
        },
        {
          "internalType": "uint256",
          "name": "tokenId",
          "type": "uint256"
        }
      ],
      "name": "transferFrom",
      "outputs": [],
      "stateMutability": "nonpayable",
      "type": "function"
    },
    {
      "inputs": [
        {
          "internalType": "address",
          "name": "to",
          "type": "address"
        },
        {
          "internalType": "string",
          "name": "_tokenURI",
          "type": "string"
        }
      ],
      "name": "mint",
      "outputs": [
        {
          "internalType": "uint256",
          "name": "",
          "type": "uint256"
        }
      ],
      "stateMutability": "nonpayable",
      "type": "function"
    },
    {
      "inputs": [
        {
          "internalType": "uint256",
          "name": "tokenId",
          "type": "uint256"
        }
      ],
      "name": "tokenURI",
      "outputs": [
        {
          "internalType": "string",
          "name": "",
          "type": "string"
        }
      ],
      "stateMutability": "view",
      "type": "function",
      "constant": true
    }
  ],
  "bytecode": "0x608060405234801562000010575f80fd5b506040518060400160405280600a81526020017f486162626f204e465473000000000000000000000000000000000000000000008152506040518060400160405280600481526020017f484e465400000000000000000000000000000000000000000000000000000000815250815f90816200008d91906200030c565b5080600190816200009f91906200030c565b505050620003f0565b5f81519050919050565b7f4e487b71000000000000000000000000000000000000000000000000000000005f52604160045260245ffd5b7f4e487b71000000000000000000000000000000000000000000000000000000005f52602260045260245ffd5b5f60028204905060018216806200012457607f821691505b6020821081036200013a5762000139620000df565b5b50919050565b5f819050815f5260205f209050919050565b5f6020601f8301049050919050565b5f82821b905092915050565b5f600883026200019e7fffffffffffffffffffffffffffffffffffffffffffffffffffffffffffffffff8262000161565b620001aa868362000161565b95508019841693508086168417925050509392505050565b5f819050919050565b5f819050919050565b5f620001f4620001ee620001e884620001c2565b620001cb565b620001c2565b9050919050565b5f819050919050565b6200020f83620001d4565b620002276200021e82620001fb565b8484546200016d565b825550505050565b5f90565b6200023d6200022f565b6200024a81848462000204565b505050565b5b818110156200027157620002655f8262000233565b60018101905062000250565b5050565b601f821115620002c0576200028a8162000140565b620002958462000152565b81016020851015620002a5578190505b620002bd620002b48562000152565b8301826200024f565b50505b505050565b5f82821c905092915050565b5f620002e25f1984600802620002c5565b1980831691505092915050565b5f620002fc8383620002d1565b9150826002028217905092915050565b6200031782620000a8565b67ffffffffffffffff811115620003335762000332620000b2565b5b6200033f82546200010c565b6200034c82828562000275565b5f60209050601f83116001811462000382575f84156200036d578287015190505b620003798582620002ef565b865550620003e8565b601f198416620003928662000140565b5f5b82811015620003bb5784890151825560018201915060208501945060208101905062000394565b86831015620003db5784890151620003d7601f891682620002d1565b8355505b6001600288020188555050505b505050505050565b612e8380620003fe5f395ff3fe608060405234801561000f575f80fd5b5060043610610109575f3560e01c80634f6ccce7116100a0578063a22cb4651161006f578063a22cb465146102db578063b88d4fde146102f7578063c87b56dd14610313578063d0def52114610343578063e985e9c51461037357610109565b80634f6ccce71461022d5780636352211e1461025d57806370a082311461028d57806395d89b41146102bd57610109565b806318160ddd116100dc57806318160ddd146101a757806323b872dd146101c55780632f745c59146101e157806342842e0e1461021157610109565b806301ffc9a71461010d57806306fdde031461013d578063081812fc1461015b578063095ea7b31461018b575b5f80fd5b61012760048036038101906101229190611c22565b6103a3565b6040516101349190611c67565b60405180910390f35b61014561041c565b6040516101529190611d0a565b60405180910390f35b61017560048036038101906101709190611d5d565b6104ab565b6040516101829190611dc7565b60405180910390f35b6101a560048036038101906101a09190611e0a565b6104ed565b005b6101af610603565b6040516101bc9190611e57565b60405180910390f35b6101df60048036038101906101da9190611e70565b61060f565b005b6101fb60048036038101906101f69190611e0a565b61066f565b6040516102089190611e57565b60405180910390f35b61022b60048036038101906102269190611e70565b61070f565b005b61024760048036038101906102429190611d5d565b61072e565b6040516102549190611e57565b60405180910390f35b61027760048036038101906102729190611d5d565b61079c565b6040516102849190611dc7565b60405180910390f35b6102a760048036038101906102a29190611ec0565b610820565b6040516102b49190611e57565b60405180910390f35b6102c56108d4565b6040516102d29190611d0a565b60405180910390f35b6102f560048036038101906102f09190611f15565b610964565b005b610311600480360381019061030c919061207f565b61097a565b005b61032d60048036038101906103289190611d5d565b6109dc565b60405161033a9190611d0a565b60405180910390f35b61035d6004803603810190610358919061219d565b610ac5565b60405161036a9190611e57565b60405180910390f35b61038d600480360381019061038891906121f7565b610b10565b60405161039a9190611c67565b60405180910390f35b5f7f780e9d63000000000000000000000000000000000000000000000000000000007bffffffffffffffffffffffffffffffffffffffffffffffffffffffff1916827bffffffffffffffffffffffffffffffffffffffffffffffffffffffff19161480610415575061041482610b9e565b5b9050919050565b60605f805461042a90612262565b80601f016020809104026020016040519081016040528092919081815260200182805461045690612262565b80156104a15780601f10610478576101008083540402835291602001916104a1565b820191905f5260205f20905b81548152906001019060200180831161048457829003601f168201915b5050505050905090565b5f6104b582610c7f565b60045f8381526020019081526020015f205f9054906101000a900473ffffffffffffffffffffffffffffffffffffffff169050919050565b5f6104f78261079c565b90508073ffffffffffffffffffffffffffffffffffffffff168373ffffffffffffffffffffffffffffffffffffffff1603610567576040517f08c379a000000000000000000000000000000000000000000000000000000000815260040161055e90612302565b60405180910390fd5b8073ffffffffffffffffffffffffffffffffffffffff16610586610cca565b73ffffffffffffffffffffffffffffffffffffffff1614806105b557506105b4816105af610cca565b610b10565b5b6105f4576040517f08c379a00000000000000000000000000000000000000000000000000000000081526004016105eb90612390565b60405180910390fd5b6105fe8383610cd1565b505050565b5f600880549050905090565b61062061061a610cca565b82610d87565b61065f576040517f08c379a00000000000000000000000000000000000000000000000000000000081526004016106569061241e565b60405180910390fd5b61066a838383610e1b565b505050565b5f61067983610820565b82106106ba576040517f08c379a00000000000000000000000000000000000000000000000000000000081526004016106b1906124ac565b60405180910390fd5b60065f8473ffffffffffffffffffffffffffffffffffffffff1673ffffffffffffffffffffffffffffffffffffffff1681526020019081526020015f205f8381526020019081526020015f2054905092915050565b61072983838360405180602001604052805f81525061097a565b505050565b5f610737610603565b8210610778576040517f08c379a000000000000000000000000000000000000000000000000000000000815260040161076f9061253a565b60405180910390fd5b6008828154811061078c5761078b612558565b5b905f5260205f2001549050919050565b5f806107a783611107565b90505f73ffffffffffffffffffffffffffffffffffffffff168173ffffffffffffffffffffffffffffffffffffffff1603610817576040517f08c379a000000000000000000000000000000000000000000000000000000000815260040161080e906125cf565b60405180910390fd5b80915050919050565b5f8073ffffffffffffffffffffffffffffffffffffffff168273ffffffffffffffffffffffffffffffffffffffff160361088f576040517f08c379a00000000000000000000000000000000000000000000000000000000081526004016108869061265d565b60405180910390fd5b60035f8373ffffffffffffffffffffffffffffffffffffffff1673ffffffffffffffffffffffffffffffffffffffff1681526020019081526020015f20549050919050565b6060600180546108e390612262565b80601f016020809104026020016040519081016040528092919081815260200182805461090f90612262565b801561095a5780601f106109315761010080835404028352916020019161095a565b820191905f5260205f20905b81548152906001019060200180831161093d57829003601f168201915b5050505050905090565b61097661096f610cca565b8383611140565b5050565b61098b610985610cca565b83610d87565b6109ca576040517f08c379a00000000000000000000000000000000000000000000000000000000081526004016109c19061241e565b60405180910390fd5b6109d6848484846112a7565b50505050565b60606109e782611303565b610a26576040517f08c379a0000000000000000000000000000000000000000000000000000000008152600401610a1d906126eb565b60405180910390fd5b600b5f8381526020019081526020015f208054610a4290612262565b80601f0160208091040260200160405190810160405280929190818152602001828054610a6e90612262565b8015610ab95780601f10610a9057610100808354040283529160200191610ab9565b820191905f5260205f20905b815481529060010190602001808311610a9c57829003601f168201915b50505050509050919050565b5f610ad0600a611343565b5f610adb600a611357565b9050610ae78482611363565b82600b5f8381526020019081526020015f209081610b0591906128a6565b508091505092915050565b5f60055f8473ffffffffffffffffffffffffffffffffffffffff1673ffffffffffffffffffffffffffffffffffffffff1681526020019081526020015f205f8373ffffffffffffffffffffffffffffffffffffffff1673ffffffffffffffffffffffffffffffffffffffff1681526020019081526020015f205f9054906101000a900460ff16905092915050565b5f7f80ac58cd000000000000000000000000000000000000000000000000000000007bffffffffffffffffffffffffffffffffffffffffffffffffffffffff1916827bffffffffffffffffffffffffffffffffffffffffffffffffffffffff19161480610c6857507f5b5e139f000000000000000000000000000000000000000000000000000000007bffffffffffffffffffffffffffffffffffffffffffffffffffffffff1916827bffffffffffffffffffffffffffffffffffffffffffffffffffffffff1916145b80610c785750610c7782611576565b5b9050919050565b610c8881611303565b610cc7576040517f08c379a0000000000000000000000000000000000000000000000000000000008152600401610cbe906125cf565b60405180910390fd5b50565b5f33905090565b8160045f8381526020019081526020015f205f6101000a81548173ffffffffffffffffffffffffffffffffffffffff021916908373ffffffffffffffffffffffffffffffffffffffff160217905550808273ffffffffffffffffffffffffffffffffffffffff16610d418361079c565b73ffffffffffffffffffffffffffffffffffffffff167f8c5be1e5ebec7d5bd14f71427d1e84f3dd0314c0f7b2291e5b200ac8c7c3b92560405160405180910390a45050565b5f80610d928361079c565b90508073ffffffffffffffffffffffffffffffffffffffff168473ffffffffffffffffffffffffffffffffffffffff161480610dd45750610dd38185610b10565b5b80610e1257508373ffffffffffffffffffffffffffffffffffffffff16610dfa846104ab565b73ffffffffffffffffffffffffffffffffffffffff16145b91505092915050565b8273ffffffffffffffffffffffffffffffffffffffff16610e3b8261079c565b73ffffffffffffffffffffffffffffffffffffffff1614610e91576040517f08c379a0000000000000000000000000000000000000000000000000000000008152600401610e88906129e5565b60405180910390fd5b5f73ffffffffffffffffffffffffffffffffffffffff168273ffffffffffffffffffffffffffffffffffffffff1603610eff576040517f08c379a0000000000000000000000000000000000000000000000000000000008152600401610ef690612a73565b60405180910390fd5b610f0c83838360016115df565b8273ffffffffffffffffffffffffffffffffffffffff16610f2c8261079c565b73ffffffffffffffffffffffffffffffffffffffff1614610f82576040517f08c379a0000000000000000000000000000000000000000000000000000000008152600401610f79906129e5565b60405180910390fd5b60045f8281526020019081526020015f205f6101000a81549073ffffffffffffffffffffffffffffffffffffffff0219169055600160035f8573ffffffffffffffffffffffffffffffffffffffff1673ffffffffffffffffffffffffffffffffffffffff1681526020019081526020015f205f8282540392505081905550600160035f8473ffffffffffffffffffffffffffffffffffffffff1673ffffffffffffffffffffffffffffffffffffffff1681526020019081526020015f205f82825401925050819055508160025f8381526020019081526020015f205f6101000a81548173ffffffffffffffffffffffffffffffffffffffff021916908373ffffffffffffffffffffffffffffffffffffffff160217905550808273ffffffffffffffffffffffffffffffffffffffff168473ffffffffffffffffffffffffffffffffffffffff167fddf252ad1be2c89b69c2b068fc378daa952ba7f163c4a11628f55a4df523b3ef60405160405180910390a4611102838383600161173a565b505050565b5f60025f8381526020019081526020015f205f9054906101000a900473ffffffffffffffffffffffffffffffffffffffff169050919050565b8173ffffffffffffffffffffffffffffffffffffffff168373ffffffffffffffffffffffffffffffffffffffff16036111ae576040517f08c379a00000000000000000000000000000000000000000000000000000000081526004016111a590612adb565b60405180910390fd5b8060055f8573ffffffffffffffffffffffffffffffffffffffff1673ffffffffffffffffffffffffffffffffffffffff1681526020019081526020015f205f8473ffffffffffffffffffffffffffffffffffffffff1673ffffffffffffffffffffffffffffffffffffffff1681526020019081526020015f205f6101000a81548160ff0219169083151502179055508173ffffffffffffffffffffffffffffffffffffffff168373ffffffffffffffffffffffffffffffffffffffff167f17307eab39ab6107e8899845ad3d59bd9653f200f220920489ca2b5937696c318360405161129a9190611c67565b60405180910390a3505050565b6112b2848484610e1b565b6112be84848484611740565b6112fd576040517f08c379a00000000000000000000000000000000000000000000000000000000081526004016112f490612b69565b60405180910390fd5b50505050565b5f8073ffffffffffffffffffffffffffffffffffffffff1661132483611107565b73ffffffffffffffffffffffffffffffffffffffff1614159050919050565b6001815f015f828254019250508190555050565b5f815f01549050919050565b5f73ffffffffffffffffffffffffffffffffffffffff168273ffffffffffffffffffffffffffffffffffffffff16036113d1576040517f08c379a00000000000000000000000000000000000000000000000000000000081526004016113c890612bd1565b60405180910390fd5b6113da81611303565b1561141a576040517f08c379a000000000000000000000000000000000000000000000000000000000815260040161141190612c39565b60405180910390fd5b6114275f838360016115df565b61143081611303565b15611470576040517f08c379a000000000000000000000000000000000000000000000000000000000815260040161146790612c39565b60405180910390fd5b600160035f8473ffffffffffffffffffffffffffffffffffffffff1673ffffffffffffffffffffffffffffffffffffffff1681526020019081526020015f205f82825401925050819055508160025f8381526020019081526020015f205f6101000a81548173ffffffffffffffffffffffffffffffffffffffff021916908373ffffffffffffffffffffffffffffffffffffffff160217905550808273ffffffffffffffffffffffffffffffffffffffff165f73ffffffffffffffffffffffffffffffffffffffff167fddf252ad1be2c89b69c2b068fc378daa952ba7f163c4a11628f55a4df523b3ef60405160405180910390a46115725f8383600161173a565b5050565b5f7f01ffc9a7000000000000000000000000000000000000000000000000000000007bffffffffffffffffffffffffffffffffffffffffffffffffffffffff1916827bffffffffffffffffffffffffffffffffffffffffffffffffffffffff1916149050919050565b6115eb848484846118c2565b600181111561162f576040517f08c379a000000000000000000000000000000000000000000000000000000000815260040161162690612cc7565b60405180910390fd5b5f8290505f73ffffffffffffffffffffffffffffffffffffffff168573ffffffffffffffffffffffffffffffffffffffff16036116745761166f816118c8565b6116b3565b8373ffffffffffffffffffffffffffffffffffffffff168573ffffffffffffffffffffffffffffffffffffffff16146116b2576116b1858261190c565b5b5b5f73ffffffffffffffffffffffffffffffffffffffff168473ffffffffffffffffffffffffffffffffffffffff16036116f4576116ef81611a62565b611733565b8473ffffffffffffffffffffffffffffffffffffffff168473ffffffffffffffffffffffffffffffffffffffff1614611732576117318482611b22565b5b5b5050505050565b50505050565b5f6117608473ffffffffffffffffffffffffffffffffffffffff16611b9a565b156118b5578373ffffffffffffffffffffffffffffffffffffffff1663150b7a02611789610cca565b8786866040518563ffffffff1660e01b81526004016117ab9493929190612d37565b6020604051808303815f875af19250505080156117e657506040513d601f19601f820116820180604052508101906117e39190612d95565b60015b611865573d805f8114611814576040519150601f19603f3d011682016040523d82523d5f602084013e611819565b606091505b505f81510361185d576040517f08c379a000000000000000000000000000000000000000000000000000000000815260040161185490612b69565b60405180910390fd5b805181602001fd5b63150b7a0260e01b7bffffffffffffffffffffffffffffffffffffffffffffffffffffffff1916817bffffffffffffffffffffffffffffffffffffffffffffffffffffffff1916149150506118ba565b600190505b949350505050565b50505050565b60088054905060095f8381526020019081526020015f2081905550600881908060018154018082558091505060019003905f5260205f20015f909190919091505550565b5f600161191884610820565b6119229190612ded565b90505f60075f8481526020019081526020015f205490508181146119f9575f60065f8673ffffffffffffffffffffffffffffffffffffffff1673ffffffffffffffffffffffffffffffffffffffff1681526020019081526020015f205f8481526020019081526020015f205490508060065f8773ffffffffffffffffffffffffffffffffffffffff1673ffffffffffffffffffffffffffffffffffffffff1681526020019081526020015f205f8481526020019081526020015f20819055508160075f8381526020019081526020015f2081905550505b60075f8481526020019081526020015f205f905560065f8573ffffffffffffffffffffffffffffffffffffffff1673ffffffffffffffffffffffffffffffffffffffff1681526020019081526020015f205f8381526020019081526020015f205f905550505050565b5f6001600880549050611a759190612ded565b90505f60095f8481526020019081526020015f205490505f60088381548110611aa157611aa0612558565b5b905f5260205f20015490508060088381548110611ac157611ac0612558565b5b905f5260205f2001819055508160095f8381526020019081526020015f208190555060095f8581526020019081526020015f205f90556008805480611b0957611b08612e20565b5b600190038181905f5260205f20015f9055905550505050565b5f611b2c83610820565b90508160065f8573ffffffffffffffffffffffffffffffffffffffff1673ffffffffffffffffffffffffffffffffffffffff1681526020019081526020015f205f8381526020019081526020015f20819055508060075f8481526020019081526020015f2081905550505050565b5f808273ffffffffffffffffffffffffffffffffffffffff163b119050919050565b5f604051905090565b5f80fd5b5f80fd5b5f7fffffffff0000000000000000000000000000000000000000000000000000000082169050919050565b611c0181611bcd565b8114611c0b575f80fd5b50565b5f81359050611c1c81611bf8565b92915050565b5f60208284031215611c3757611c36611bc5565b5b5f611c4484828501611c0e565b91505092915050565b5f8115159050919050565b611c6181611c4d565b82525050565b5f602082019050611c7a5f830184611c58565b92915050565b5f81519050919050565b5f82825260208201905092915050565b5f5b83811015611cb7578082015181840152602081019050611c9c565b5f8484015250505050565b5f601f19601f8301169050919050565b5f611cdc82611c80565b611ce68185611c8a565b9350611cf6818560208601611c9a565b611cff81611cc2565b840191505092915050565b5f6020820190508181035f830152611d228184611cd2565b905092915050565b5f819050919050565b611d3c81611d2a565b8114611d46575f80fd5b50565b5f81359050611d5781611d33565b92915050565b5f60208284031215611d7257611d71611bc5565b5b5f611d7f84828501611d49565b91505092915050565b5f73ffffffffffffffffffffffffffffffffffffffff82169050919050565b5f611db182611d88565b9050919050565b611dc181611da7565b82525050565b5f602082019050611dda5f830184611db8565b92915050565b611de981611da7565b8114611df3575f80fd5b50565b5f81359050611e0481611de0565b92915050565b5f8060408385031215611e2057611e1f611bc5565b5b5f611e2d85828601611df6565b9250506020611e3e85828601611d49565b9150509250929050565b611e5181611d2a565b82525050565b5f602082019050611e6a5f830184611e48565b92915050565b5f805f60608486031215611e8757611e86611bc5565b5b5f611e9486828701611df6565b9350506020611ea586828701611df6565b9250506040611eb686828701611d49565b9150509250925092565b5f60208284031215611ed557611ed4611bc5565b5b5f611ee284828501611df6565b91505092915050565b611ef481611c4d565b8114611efe575f80fd5b50565b5f81359050611f0f81611eeb565b92915050565b5f8060408385031215611f2b57611f2a611bc5565b5b5f611f3885828601611df6565b9250506020611f4985828601611f01565b9150509250929050565b5f80fd5b5f80fd5b7f4e487b71000000000000000000000000000000000000000000000000000000005f52604160045260245ffd5b611f9182611cc2565b810181811067ffffffffffffffff82111715611fb057611faf611f5b565b5b80604052505050565b5f611fc2611bbc565b9050611fce8282611f88565b919050565b5f67ffffffffffffffff821115611fed57611fec611f5b565b5b611ff682611cc2565b9050602081019050919050565b828183375f83830152505050565b5f61202361201e84611fd3565b611fb9565b90508281526020810184848401111561203f5761203e611f57565b5b61204a848285612003565b509392505050565b5f82601f83011261206657612065611f53565b5b8135612076848260208601612011565b91505092915050565b5f805f806080858703121561209757612096611bc5565b5b5f6120a487828801611df6565b94505060206120b587828801611df6565b93505060406120c687828801611d49565b925050606085013567ffffffffffffffff8111156120e7576120e6611bc9565b5b6120f387828801612052565b91505092959194509250565b5f67ffffffffffffffff82111561211957612118611f5b565b5b61212282611cc2565b9050602081019050919050565b5f61214161213c846120ff565b611fb9565b90508281526020810184848401111561215d5761215c611f57565b5b612168848285612003565b509392505050565b5f82601f83011261218457612183611f53565b5b813561219484826020860161212f565b91505092915050565b5f80604083850312156121b3576121b2611bc5565b5b5f6121c085828601611df6565b925050602083013567ffffffffffffffff8111156121e1576121e0611bc9565b5b6121ed85828601612170565b9150509250929050565b5f806040838503121561220d5761220c611bc5565b5b5f61221a85828601611df6565b925050602061222b85828601611df6565b9150509250929050565b7f4e487b71000000000000000000000000000000000000000000000000000000005f52602260045260245ffd5b5f600282049050600182168061227957607f821691505b60208210810361228c5761228b612235565b5b50919050565b7f4552433732313a20617070726f76616c20746f2063757272656e74206f776e655f8201527f7200000000000000000000000000000000000000000000000000000000000000602082015250565b5f6122ec602183611c8a565b91506122f782612292565b604082019050919050565b5f6020820190508181035f830152612319816122e0565b9050919050565b7f4552433732313a20617070726f76652063616c6c6572206973206e6f7420746f5f8201527f6b656e206f776e6572206f7220617070726f76656420666f7220616c6c000000602082015250565b5f61237a603d83611c8a565b915061238582612320565b604082019050919050565b5f6020820190508181035f8301526123a78161236e565b9050919050565b7f4552433732313a2063616c6c6572206973206e6f7420746f6b656e206f776e655f8201527f72206f7220617070726f76656400000000000000000000000000000000000000602082015250565b5f612408602d83611c8a565b9150612413826123ae565b604082019050919050565b5f6020820190508181035f830152612435816123fc565b9050919050565b7f455243373231456e756d657261626c653a206f776e657220696e646578206f755f8201527f74206f6620626f756e6473000000000000000000000000000000000000000000602082015250565b5f612496602b83611c8a565b91506124a18261243c565b604082019050919050565b5f6020820190508181035f8301526124c38161248a565b9050919050565b7f455243373231456e756d657261626c653a20676c6f62616c20696e646578206f5f8201527f7574206f6620626f756e64730000000000000000000000000000000000000000602082015250565b5f612524602c83611c8a565b915061252f826124ca565b604082019050919050565b5f6020820190508181035f83015261255181612518565b9050919050565b7f4e487b71000000000000000000000000000000000000000000000000000000005f52603260045260245ffd5b7f4552433732313a20696e76616c696420746f6b656e20494400000000000000005f82015250565b5f6125b9601883611c8a565b91506125c482612585565b602082019050919050565b5f6020820190508181035f8301526125e6816125ad565b9050919050565b7f4552433732313a2061646472657373207a65726f206973206e6f7420612076615f8201527f6c6964206f776e65720000000000000000000000000000000000000000000000602082015250565b5f612647602983611c8a565b9150612652826125ed565b604082019050919050565b5f6020820190508181035f8301526126748161263b565b9050919050565b7f4552433732314d657461646174613a2055524920717565727920666f72206e6f5f8201527f6e6578697374656e7420746f6b656e0000000000000000000000000000000000602082015250565b5f6126d5602f83611c8a565b91506126e08261267b565b604082019050919050565b5f6020820190508181035f830152612702816126c9565b9050919050565b5f819050815f5260205f209050919050565b5f6020601f8301049050919050565b5f82821b905092915050565b5f600883026127657fffffffffffffffffffffffffffffffffffffffffffffffffffffffffffffffff8261272a565b61276f868361272a565b95508019841693508086168417925050509392505050565b5f819050919050565b5f6127aa6127a56127a084611d2a565b612787565b611d2a565b9050919050565b5f819050919050565b6127c383612790565b6127d76127cf826127b1565b848454612736565b825550505050565b5f90565b6127eb6127df565b6127f68184846127ba565b505050565b5b818110156128195761280e5f826127e3565b6001810190506127fc565b5050565b601f82111561285e5761282f81612709565b6128388461271b565b81016020851015612847578190505b61285b6128538561271b565b8301826127fb565b50505b505050565b5f82821c905092915050565b5f61287e5f1984600802612863565b1980831691505092915050565b5f612896838361286f565b9150826002028217905092915050565b6128af82611c80565b67ffffffffffffffff8111156128c8576128c7611f5b565b5b6128d28254612262565b6128dd82828561281d565b5f60209050601f83116001811461290e575f84156128fc578287015190505b612906858261288b565b86555061296d565b601f19841661291c86612709565b5f5b828110156129435784890151825560018201915060208501945060208101905061291e565b86831015612960578489015161295c601f89168261286f565b8355505b6001600288020188555050505b505050505050565b7f4552433732313a207472616e736665722066726f6d20696e636f7272656374205f8201527f6f776e6572000000000000000000000000000000000000000000000000000000602082015250565b5f6129cf602583611c8a565b91506129da82612975565b604082019050919050565b5f6020820190508181035f8301526129fc816129c3565b9050919050565b7f4552433732313a207472616e7366657220746f20746865207a65726f206164645f8201527f7265737300000000000000000000000000000000000000000000000000000000602082015250565b5f612a5d602483611c8a565b9150612a6882612a03565b604082019050919050565b5f6020820190508181035f830152612a8a81612a51565b9050919050565b7f4552433732313a20617070726f766520746f2063616c6c6572000000000000005f82015250565b5f612ac5601983611c8a565b9150612ad082612a91565b602082019050919050565b5f6020820190508181035f830152612af281612ab9565b9050919050565b7f4552433732313a207472616e7366657220746f206e6f6e2045524337323152655f8201527f63656976657220696d706c656d656e7465720000000000000000000000000000602082015250565b5f612b53603283611c8a565b9150612b5e82612af9565b604082019050919050565b5f6020820190508181035f830152612b8081612b47565b9050919050565b7f4552433732313a206d696e7420746f20746865207a65726f20616464726573735f82015250565b5f612bbb602083611c8a565b9150612bc682612b87565b602082019050919050565b5f6020820190508181035f830152612be881612baf565b9050919050565b7f4552433732313a20746f6b656e20616c7265616479206d696e746564000000005f82015250565b5f612c23601c83611c8a565b9150612c2e82612bef565b602082019050919050565b5f6020820190508181035f830152612c5081612c17565b9050919050565b7f455243373231456e756d657261626c653a20636f6e73656375746976652074725f8201527f616e7366657273206e6f7420737570706f727465640000000000000000000000602082015250565b5f612cb1603583611c8a565b9150612cbc82612c57565b604082019050919050565b5f6020820190508181035f830152612cde81612ca5565b9050919050565b5f81519050919050565b5f82825260208201905092915050565b5f612d0982612ce5565b612d138185612cef565b9350612d23818560208601611c9a565b612d2c81611cc2565b840191505092915050565b5f608082019050612d4a5f830187611db8565b612d576020830186611db8565b612d646040830185611e48565b8181036060830152612d768184612cff565b905095945050505050565b5f81519050612d8f81611bf8565b92915050565b5f60208284031215612daa57612da9611bc5565b5b5f612db784828501612d81565b91505092915050565b7f4e487b71000000000000000000000000000000000000000000000000000000005f52601160045260245ffd5b5f612df782611d2a565b9150612e0283611d2a565b9250828203905081811115612e1a57612e19612dc0565b5b92915050565b7f4e487b71000000000000000000000000000000000000000000000000000000005f52603160045260245ffdfea2646970667358221220044f135be14a71e795754450a98dfd61fcca09b0ba7c0660969a029544ab3b3d64736f6c63430008140033",
  "immutableReferences": {},
  "source": "\npragma solidity ^0.8.0;\n\nimport \"@openzeppelin/contracts/token/ERC721/extensions/ERC721Enumerable.sol\";\nimport \"@openzeppelin/contracts/utils/Counters.sol\";\n\ncontract NFTs is ERC721Enumerable {\n    using Counters for Counters.Counter;\n    Counters.Counter private _tokenIdCounter;\n\n    // Mapping from token ID to token URI\n    mapping(uint256 => string) private _tokenURIs;\n\n    constructor() ERC721(\"Habbo NFTs\", \"HNFT\") {}\n\n    function mint(address to, string memory _tokenURI) public returns (uint256) {\n        _tokenIdCounter.increment();\n        uint256 newTokenId = _tokenIdCounter.current();\n        _mint(to, newTokenId);\n        _tokenURIs[newTokenId] = _tokenURI;\n        return newTokenId;\n    }\n\n    function tokenURI(uint256 tokenId) public view virtual override returns (string memory) {\n        require(_exists(tokenId), \"ERC721Metadata: URI query for nonexistent token\");\n        return _tokenURIs[tokenId];\n    }\n}\n",
  "sourcePath": "/Volumes/Projects/sulake/project/habbo-marketplace/contracts/NFTs.sol",
  "compiler": {
    "name": "solc",
    "version": "0.8.20+commit.a1b79de6.Emscripten.clang"
  },
  "schemaVersion": "3.4.14",
  "updatedAt": "2023-08-23T08:58:15.145Z",
  "networkType": "ethereum",
  "devdoc": {
    "events": {
      "Approval(address,address,uint256)": {
        "details": "Emitted when `owner` enables `approved` to manage the `tokenId` token."
      },
      "ApprovalForAll(address,address,bool)": {
        "details": "Emitted when `owner` enables or disables (`approved`) `operator` to manage all of its assets."
      },
      "Transfer(address,address,uint256)": {
        "details": "Emitted when `tokenId` token is transferred from `from` to `to`."
      }
    },
    "kind": "dev",
    "methods": {
      "approve(address,uint256)": {
        "details": "See {IERC721-approve}."
      },
      "balanceOf(address)": {
        "details": "See {IERC721-balanceOf}."
      },
      "getApproved(uint256)": {
        "details": "See {IERC721-getApproved}."
      },
      "isApprovedForAll(address,address)": {
        "details": "See {IERC721-isApprovedForAll}."
      },
      "name()": {
        "details": "See {IERC721Metadata-name}."
      },
      "ownerOf(uint256)": {
        "details": "See {IERC721-ownerOf}."
      },
      "safeTransferFrom(address,address,uint256)": {
        "details": "See {IERC721-safeTransferFrom}."
      },
      "safeTransferFrom(address,address,uint256,bytes)": {
        "details": "See {IERC721-safeTransferFrom}."
      },
      "setApprovalForAll(address,bool)": {
        "details": "See {IERC721-setApprovalForAll}."
      },
      "supportsInterface(bytes4)": {
        "details": "See {IERC165-supportsInterface}."
      },
      "symbol()": {
        "details": "See {IERC721Metadata-symbol}."
      },
      "tokenByIndex(uint256)": {
        "details": "See {IERC721Enumerable-tokenByIndex}."
      },
      "tokenOfOwnerByIndex(address,uint256)": {
        "details": "See {IERC721Enumerable-tokenOfOwnerByIndex}."
      },
      "tokenURI(uint256)": {
        "details": "See {IERC721Metadata-tokenURI}."
      },
      "totalSupply()": {
        "details": "See {IERC721Enumerable-totalSupply}."
      },
      "transferFrom(address,address,uint256)": {
        "details": "See {IERC721-transferFrom}."
      }
    },
    "version": 1
  },
  "userdoc": {
    "kind": "user",
    "methods": {},
    "version": 1
  }
}